{
  "contractName": "CertificateRegistry",
  "abi": [
    {
      "inputs": [],
      "stateMutability": "nonpayable",
      "type": "constructor"
    },
    {
      "inputs": [
        {
          "internalType": "uint256",
          "name": "",
          "type": "uint256"
        }
      ],
      "name": "certificates",
      "outputs": [
        {
          "internalType": "uint256",
          "name": "id",
          "type": "uint256"
        },
        {
          "internalType": "string",
          "name": "studentName",
          "type": "string"
        },
        {
          "internalType": "string",
          "name": "courseName",
          "type": "string"
        },
        {
          "internalType": "string",
          "name": "institution",
          "type": "string"
        },
        {
          "internalType": "uint256",
          "name": "instituteId",
          "type": "uint256"
        },
        {
          "internalType": "uint256",
          "name": "year",
          "type": "uint256"
        },
        {
          "internalType": "uint256",
          "name": "semester",
          "type": "uint256"
        },
        {
          "internalType": "string",
          "name": "CGPA",
          "type": "string"
        },
        {
          "internalType": "bool",
          "name": "isValid",
          "type": "bool"
        }
      ],
      "stateMutability": "view",
      "type": "function",
      "constant": true
    },
    {
      "inputs": [],
      "name": "owner",
      "outputs": [
        {
          "internalType": "address",
          "name": "",
          "type": "address"
        }
      ],
      "stateMutability": "view",
      "type": "function",
      "constant": true
    },
    {
      "inputs": [
        {
          "internalType": "uint256",
          "name": "_id",
          "type": "uint256"
        },
        {
          "internalType": "string",
          "name": "_studentName",
          "type": "string"
        },
        {
          "internalType": "string",
          "name": "_courseName",
          "type": "string"
        },
        {
          "internalType": "string",
          "name": "_institution",
          "type": "string"
        },
        {
          "internalType": "uint256",
          "name": "_instituteId",
          "type": "uint256"
        },
        {
          "internalType": "uint256",
          "name": "_year",
          "type": "uint256"
        },
        {
          "internalType": "uint256",
          "name": "_semester",
          "type": "uint256"
        },
        {
          "internalType": "string",
          "name": "_CGPA",
          "type": "string"
        }
      ],
      "name": "issueCertificate",
      "outputs": [],
      "stateMutability": "nonpayable",
      "type": "function"
    },
    {
      "inputs": [
        {
          "internalType": "uint256",
          "name": "_id",
          "type": "uint256"
        }
      ],
      "name": "verifyCertificate",
      "outputs": [
        {
          "internalType": "bool",
          "name": "",
          "type": "bool"
        },
        {
          "internalType": "string",
          "name": "",
          "type": "string"
        },
        {
          "internalType": "string",
          "name": "",
          "type": "string"
        },
        {
          "internalType": "uint256",
          "name": "",
          "type": "uint256"
        }
      ],
      "stateMutability": "view",
      "type": "function",
      "constant": true
    }
  ],
  "bytecode": "0x608060405234801561001057600080fd5b5033600160006101000a81548173ffffffffffffffffffffffffffffffffffffffff021916908373ffffffffffffffffffffffffffffffffffffffff160217905550610e71806100616000396000f3fe608060405234801561001057600080fd5b506004361061004c5760003560e01c80631692a94214610051578063663b3e22146100845780638da5cb5b146100bc578063aa04c301146100da575b600080fd5b61006b6004803603810190610066919061093e565b6100f6565b60405161007b9493929190610b60565b60405180910390f35b61009e6004803603810190610099919061093e565b6103ce565b6040516100b399989796959493929190610bd3565b60405180910390f35b6100c4610649565b6040516100d19190610b45565b60405180910390f35b6100f460048036038101906100ef9190610967565b61066f565b005b6000606080600080600080878152602001908152602001600020604051806101200160405290816000820154815260200160018201805461013690610d83565b80601f016020809104026020016040519081016040528092919081815260200182805461016290610d83565b80156101af5780601f10610184576101008083540402835291602001916101af565b820191906000526020600020905b81548152906001019060200180831161019257829003601f168201915b505050505081526020016002820180546101c890610d83565b80601f01602080910402602001604051908101604052809291908181526020018280546101f490610d83565b80156102415780601f1061021657610100808354040283529160200191610241565b820191906000526020600020905b81548152906001019060200180831161022457829003601f168201915b5050505050815260200160038201805461025a90610d83565b80601f016020809104026020016040519081016040528092919081815260200182805461028690610d83565b80156102d35780601f106102a8576101008083540402835291602001916102d3565b820191906000526020600020905b8154815290600101906020018083116102b657829003601f168201915b5050505050815260200160048201548152602001600582015481526020016006820154815260200160078201805461030a90610d83565b80601f016020809104026020016040519081016040528092919081815260200182805461033690610d83565b80156103835780601f1061035857610100808354040283529160200191610383565b820191906000526020600020905b81548152906001019060200180831161036657829003601f168201915b505050505081526020016008820160009054906101000a900460ff16151515158152505090508061010001518160200151826060015183600001519450945094509450509193509193565b60006020528060005260406000206000915090508060000154908060010180546103f790610d83565b80601f016020809104026020016040519081016040528092919081815260200182805461042390610d83565b80156104705780601f1061044557610100808354040283529160200191610470565b820191906000526020600020905b81548152906001019060200180831161045357829003601f168201915b50505050509080600201805461048590610d83565b80601f01602080910402602001604051908101604052809291908181526020018280546104b190610d83565b80156104fe5780601f106104d3576101008083540402835291602001916104fe565b820191906000526020600020905b8154815290600101906020018083116104e157829003601f168201915b50505050509080600301805461051390610d83565b80601f016020809104026020016040519081016040528092919081815260200182805461053f90610d83565b801561058c5780601f106105615761010080835404028352916020019161058c565b820191906000526020600020905b81548152906001019060200180831161056f57829003601f168201915b5050505050908060040154908060050154908060060154908060070180546105b390610d83565b80601f01602080910402602001604051908101604052809291908181526020018280546105df90610d83565b801561062c5780601f106106015761010080835404028352916020019161062c565b820191906000526020600020905b81548152906001019060200180831161060f57829003601f168201915b5050505050908060080160009054906101000a900460ff16905089565b600160009054906101000a900473ffffffffffffffffffffffffffffffffffffffff1681565b600160009054906101000a900473ffffffffffffffffffffffffffffffffffffffff1673ffffffffffffffffffffffffffffffffffffffff163373ffffffffffffffffffffffffffffffffffffffff16146106ff576040517f08c379a00000000000000000000000000000000000000000000000000000000081526004016106f690610bb3565b60405180910390fd5b604051806101200160405280898152602001888152602001878152602001868152602001858152602001848152602001838152602001828152602001600115158152506000808a815260200190815260200160002060008201518160000155602082015181600101908051906020019061077a92919061081e565b50604082015181600201908051906020019061079792919061081e565b5060608201518160030190805190602001906107b492919061081e565b506080820151816004015560a0820151816005015560c0820151816006015560e08201518160070190805190602001906107ef92919061081e565b506101008201518160080160006101000a81548160ff0219169083151502179055509050505050505050505050565b82805461082a90610d83565b90600052602060002090601f01602090048101928261084c5760008555610893565b82601f1061086557805160ff1916838001178555610893565b82800160010185558215610893579182015b82811115610892578251825591602001919060010190610877565b5b5090506108a091906108a4565b5090565b5b808211156108bd5760008160009055506001016108a5565b5090565b60006108d46108cf84610cad565b610c7c565b9050828152602081018484840111156108ec57600080fd5b6108f7848285610d41565b509392505050565b600082601f83011261091057600080fd5b81356109208482602086016108c1565b91505092915050565b60008135905061093881610e24565b92915050565b60006020828403121561095057600080fd5b600061095e84828501610929565b91505092915050565b600080600080600080600080610100898b03121561098457600080fd5b60006109928b828c01610929565b985050602089013567ffffffffffffffff8111156109af57600080fd5b6109bb8b828c016108ff565b975050604089013567ffffffffffffffff8111156109d857600080fd5b6109e48b828c016108ff565b965050606089013567ffffffffffffffff811115610a0157600080fd5b610a0d8b828c016108ff565b9550506080610a1e8b828c01610929565b94505060a0610a2f8b828c01610929565b93505060c0610a408b828c01610929565b92505060e089013567ffffffffffffffff811115610a5d57600080fd5b610a698b828c016108ff565b9150509295985092959890939650565b610a8281610cf9565b82525050565b610a9181610d0b565b82525050565b6000610aa282610cdd565b610aac8185610ce8565b9350610abc818560208601610d50565b610ac581610e13565b840191505092915050565b6000610add602883610ce8565b91507f4f6e6c7920746865204f776e65722063616e206973737565207468652043657260008301527f74696669636174650000000000000000000000000000000000000000000000006020830152604082019050919050565b610b3f81610d37565b82525050565b6000602082019050610b5a6000830184610a79565b92915050565b6000608082019050610b756000830187610a88565b8181036020830152610b878186610a97565b90508181036040830152610b9b8185610a97565b9050610baa6060830184610b36565b95945050505050565b60006020820190508181036000830152610bcc81610ad0565b9050919050565b600061012082019050610be9600083018c610b36565b8181036020830152610bfb818b610a97565b90508181036040830152610c0f818a610a97565b90508181036060830152610c238189610a97565b9050610c326080830188610b36565b610c3f60a0830187610b36565b610c4c60c0830186610b36565b81810360e0830152610c5e8185610a97565b9050610c6e610100830184610a88565b9a9950505050505050505050565b6000604051905081810181811067ffffffffffffffff82111715610ca357610ca2610de4565b5b8060405250919050565b600067ffffffffffffffff821115610cc857610cc7610de4565b5b601f19601f8301169050602081019050919050565b600081519050919050565b600082825260208201905092915050565b6000610d0482610d17565b9050919050565b60008115159050919050565b600073ffffffffffffffffffffffffffffffffffffffff82169050919050565b6000819050919050565b82818337600083830152505050565b60005b83811015610d6e578082015181840152602081019050610d53565b83811115610d7d576000848401525b50505050565b60006002820490506001821680610d9b57607f821691505b60208210811415610daf57610dae610db5565b5b50919050565b7f4e487b7100000000000000000000000000000000000000000000000000000000600052602260045260246000fd5b7f4e487b7100000000000000000000000000000000000000000000000000000000600052604160045260246000fd5b6000601f19601f8301169050919050565b610e2d81610d37565b8114610e3857600080fd5b5056fea2646970667358221220a1a9ce34808378284bf9cc0cdd38a942e7101339de34d3c64cf0cca63617a00b64736f6c63430008000033",
  "immutableReferences": {},
  "source": "// SPDX-License-Identifier: MIT\n\npragma solidity ^0.8.0;\n\ncontract CertificateRegistry {\n    struct Certificate {\n        uint256 id; // Certificate Unique ID\n        string studentName; // Name of the Student\n        string courseName;  // Course Name\n        string institution; // Institute Name\n        uint256 instituteId; // Institute ID\n        uint256 year; // Year\n        uint256 semester; // Semester\n        string CGPA; // CGPA\n        bool isValid; // Certificate validity status\n    }\n\n    mapping(uint256 => Certificate) public certificates;\n    address public owner;\n\n    constructor() {\n        owner = msg.sender;\n    }\n\n    modifier onlyOwner() {\n        require(msg.sender == owner, \"Only the Owner can issue the Certificate\");\n        _;\n    }\n\n    function issueCertificate(\n        uint256 _id,\n        string memory _studentName,\n        string memory _courseName,\n        string memory _institution,\n        uint256 _instituteId,\n        uint256 _year,\n        uint256 _semester,\n        string memory _CGPA\n    ) public onlyOwner {\n        certificates[_id] = Certificate(\n            _id,\n            _studentName,\n            _courseName,\n            _institution,\n            _instituteId,\n            _year,\n            _semester,\n            _CGPA,\n            true // Initially, the certificate is valid\n        );\n    }\n\n    function verifyCertificate(uint256 _id)\n        public\n        view\n        returns (\n            bool,\n            string memory,\n            string memory,\n            uint256\n        )\n    {\n        Certificate memory cert = certificates[_id];\n        return (cert.isValid, cert.studentName, cert.institution, cert.id);\n    }\n}\n",
  "sourcePath": "/home/runner/workspace/contracts/CertificateRegistry.sol",
  "compiler": {
    "name": "solc",
    "version": "0.8.0+commit.c7dfd78e.Emscripten.clang"
  },
  "schemaVersion": "3.4.16",
  "updatedAt": "2025-11-02T22:51:49.240Z",
  "networkType": "ethereum",
  "devdoc": {
    "kind": "dev",
    "methods": {},
    "version": 1
  },
  "userdoc": {
    "kind": "user",
    "methods": {},
    "version": 1
  }
}