{
  "contractName": "CertificateRegistry",
  "abi": [
    {
      "inputs": [],
      "stateMutability": "nonpayable",
      "type": "constructor"
    },
    {
      "inputs": [
        {
          "internalType": "uint256",
          "name": "",
          "type": "uint256"
        }
      ],
      "name": "certificates",
      "outputs": [
        {
          "internalType": "uint256",
          "name": "id",
          "type": "uint256"
        },
        {
          "internalType": "string",
          "name": "studentName",
          "type": "string"
        },
        {
          "internalType": "string",
          "name": "courseName",
          "type": "string"
        },
        {
          "internalType": "string",
          "name": "institution",
          "type": "string"
        },
        {
          "internalType": "string",
          "name": "issueDate",
          "type": "string"
        },
        {
          "internalType": "bool",
          "name": "isValid",
          "type": "bool"
        }
      ],
      "stateMutability": "view",
      "type": "function",
      "constant": true
    },
    {
      "inputs": [],
      "name": "owner",
      "outputs": [
        {
          "internalType": "address",
          "name": "",
          "type": "address"
        }
      ],
      "stateMutability": "view",
      "type": "function",
      "constant": true
    },
    {
      "inputs": [
        {
          "internalType": "uint256",
          "name": "_id",
          "type": "uint256"
        },
        {
          "internalType": "string",
          "name": "_studentName",
          "type": "string"
        },
        {
          "internalType": "string",
          "name": "_courseName",
          "type": "string"
        },
        {
          "internalType": "string",
          "name": "_institution",
          "type": "string"
        },
        {
          "internalType": "string",
          "name": "_issueDate",
          "type": "string"
        }
      ],
      "name": "issueCertificate",
      "outputs": [],
      "stateMutability": "nonpayable",
      "type": "function"
    },
    {
      "inputs": [
        {
          "internalType": "uint256",
          "name": "_id",
          "type": "uint256"
        }
      ],
      "name": "verifyCertificate",
      "outputs": [
        {
          "internalType": "bool",
          "name": "",
          "type": "bool"
        }
      ],
      "stateMutability": "view",
      "type": "function",
      "constant": true
    }
  ],
  "bytecode": "0x608060405234801561001057600080fd5b5033600160006101000a81548173ffffffffffffffffffffffffffffffffffffffff021916908373ffffffffffffffffffffffffffffffffffffffff160217905550610d49806100616000396000f3fe608060405234801561001057600080fd5b506004361061004c5760003560e01c80631692a94214610051578063663b3e22146100815780638da5cb5b146100b6578063d8e6219e146100d4575b600080fd5b61006b600480360381019061006691906108b5565b6100f0565b6040516100789190610a9c565b60405180910390f35b61009b600480360381019061009691906108b5565b61038c565b6040516100ad96959493929190610ad7565b60405180910390f35b6100be6105f5565b6040516100cb9190610a81565b60405180910390f35b6100ee60048036038101906100e991906108de565b61061b565b005b6000806000808481526020019081526020016000206040518060c00160405290816000820154815260200160018201805461012a90610c5b565b80601f016020809104026020016040519081016040528092919081815260200182805461015690610c5b565b80156101a35780601f10610178576101008083540402835291602001916101a3565b820191906000526020600020905b81548152906001019060200180831161018657829003601f168201915b505050505081526020016002820180546101bc90610c5b565b80601f01602080910402602001604051908101604052809291908181526020018280546101e890610c5b565b80156102355780601f1061020a57610100808354040283529160200191610235565b820191906000526020600020905b81548152906001019060200180831161021857829003601f168201915b5050505050815260200160038201805461024e90610c5b565b80601f016020809104026020016040519081016040528092919081815260200182805461027a90610c5b565b80156102c75780601f1061029c576101008083540402835291602001916102c7565b820191906000526020600020905b8154815290600101906020018083116102aa57829003601f168201915b505050505081526020016004820180546102e090610c5b565b80601f016020809104026020016040519081016040528092919081815260200182805461030c90610c5b565b80156103595780601f1061032e57610100808354040283529160200191610359565b820191906000526020600020905b81548152906001019060200180831161033c57829003601f168201915b505050505081526020016005820160009054906101000a900460ff16151515158152505090508060a00151915050919050565b60006020528060005260406000206000915090508060000154908060010180546103b590610c5b565b80601f01602080910402602001604051908101604052809291908181526020018280546103e190610c5b565b801561042e5780601f106104035761010080835404028352916020019161042e565b820191906000526020600020905b81548152906001019060200180831161041157829003601f168201915b50505050509080600201805461044390610c5b565b80601f016020809104026020016040519081016040528092919081815260200182805461046f90610c5b565b80156104bc5780601f10610491576101008083540402835291602001916104bc565b820191906000526020600020905b81548152906001019060200180831161049f57829003601f168201915b5050505050908060030180546104d190610c5b565b80601f01602080910402602001604051908101604052809291908181526020018280546104fd90610c5b565b801561054a5780601f1061051f5761010080835404028352916020019161054a565b820191906000526020600020905b81548152906001019060200180831161052d57829003601f168201915b50505050509080600401805461055f90610c5b565b80601f016020809104026020016040519081016040528092919081815260200182805461058b90610c5b565b80156105d85780601f106105ad576101008083540402835291602001916105d8565b820191906000526020600020905b8154815290600101906020018083116105bb57829003601f168201915b5050505050908060050160009054906101000a900460ff16905086565b600160009054906101000a900473ffffffffffffffffffffffffffffffffffffffff1681565b600160009054906101000a900473ffffffffffffffffffffffffffffffffffffffff1673ffffffffffffffffffffffffffffffffffffffff163373ffffffffffffffffffffffffffffffffffffffff16146106ab576040517f08c379a00000000000000000000000000000000000000000000000000000000081526004016106a290610ab7565b60405180910390fd5b6040518060c0016040528086815260200185815260200184815260200183815260200182815260200160011515815250600080878152602001908152602001600020600082015181600001556020820151816001019080519060200190610713929190610795565b506040820151816002019080519060200190610730929190610795565b50606082015181600301908051906020019061074d929190610795565b50608082015181600401908051906020019061076a929190610795565b5060a08201518160050160006101000a81548160ff0219169083151502179055509050505050505050565b8280546107a190610c5b565b90600052602060002090601f0160209004810192826107c3576000855561080a565b82601f106107dc57805160ff191683800117855561080a565b8280016001018555821561080a579182015b828111156108095782518255916020019190600101906107ee565b5b509050610817919061081b565b5090565b5b8082111561083457600081600090555060010161081c565b5090565b600061084b61084684610b85565b610b54565b90508281526020810184848401111561086357600080fd5b61086e848285610c19565b509392505050565b600082601f83011261088757600080fd5b8135610897848260208601610838565b91505092915050565b6000813590506108af81610cfc565b92915050565b6000602082840312156108c757600080fd5b60006108d5848285016108a0565b91505092915050565b600080600080600060a086880312156108f657600080fd5b6000610904888289016108a0565b955050602086013567ffffffffffffffff81111561092157600080fd5b61092d88828901610876565b945050604086013567ffffffffffffffff81111561094a57600080fd5b61095688828901610876565b935050606086013567ffffffffffffffff81111561097357600080fd5b61097f88828901610876565b925050608086013567ffffffffffffffff81111561099c57600080fd5b6109a888828901610876565b9150509295509295909350565b6109be81610bd1565b82525050565b6109cd81610be3565b82525050565b60006109de82610bb5565b6109e88185610bc0565b93506109f8818560208601610c28565b610a0181610ceb565b840191505092915050565b6000610a19602883610bc0565b91507f4f6e6c7920746865204f776e65722063616e206973737565207468652043657260008301527f74696669636174650000000000000000000000000000000000000000000000006020830152604082019050919050565b610a7b81610c0f565b82525050565b6000602082019050610a9660008301846109b5565b92915050565b6000602082019050610ab160008301846109c4565b92915050565b60006020820190508181036000830152610ad081610a0c565b9050919050565b600060c082019050610aec6000830189610a72565b8181036020830152610afe81886109d3565b90508181036040830152610b1281876109d3565b90508181036060830152610b2681866109d3565b90508181036080830152610b3a81856109d3565b9050610b4960a08301846109c4565b979650505050505050565b6000604051905081810181811067ffffffffffffffff82111715610b7b57610b7a610cbc565b5b8060405250919050565b600067ffffffffffffffff821115610ba057610b9f610cbc565b5b601f19601f8301169050602081019050919050565b600081519050919050565b600082825260208201905092915050565b6000610bdc82610bef565b9050919050565b60008115159050919050565b600073ffffffffffffffffffffffffffffffffffffffff82169050919050565b6000819050919050565b82818337600083830152505050565b60005b83811015610c46578082015181840152602081019050610c2b565b83811115610c55576000848401525b50505050565b60006002820490506001821680610c7357607f821691505b60208210811415610c8757610c86610c8d565b5b50919050565b7f4e487b7100000000000000000000000000000000000000000000000000000000600052602260045260246000fd5b7f4e487b7100000000000000000000000000000000000000000000000000000000600052604160045260246000fd5b6000601f19601f8301169050919050565b610d0581610c0f565b8114610d1057600080fd5b5056fea26469706673582212200a557cd36cdb3032518174204fb3429ee1f03484c0caaaa7b6c8b2994835ebe064736f6c63430008000033",
  "immutableReferences": {},
  "source": "// SPDX-License-Identifier: MIT\n\npragma solidity ^0.8.0;\n\ncontract CertificateRegistry {\n    struct Certificate {\n        uint256 id;\n        string studentName;\n        string courseName;\n        string institution;\n        string issueDate;\n        bool isValid;\n    }\n\n    mapping(uint256 => Certificate) public certificates;\n    address public owner;\n\n    constructor() {\n        owner = msg.sender;\n    }\n\n    modifier onlyOwner() {\n        require(msg.sender == owner, \"Only the Owner can issue the Certificate\");\n        _;\n    }\n\n    function issueCertificate(\n        uint256 _id,\n        string memory _studentName,\n        string memory _courseName,\n        string memory _institution,\n        string memory _issueDate\n    ) public onlyOwner {\n        certificates[_id] = Certificate(_id, _studentName, _courseName, _institution, _issueDate, true);\n    }\n\n    function verifyCertificate(uint256 _id) public view returns (bool) {\n    Certificate memory cert = certificates[_id];\n    return cert.isValid; // Only return the validity status (true or false)\n}\n\n}\n",
  "sourcePath": "C:\\Users\\mohit\\Documents\\CertificateSystem\\contracts\\CertificateRegistry.sol",
  "compiler": {
    "name": "solc",
    "version": "0.8.0+commit.c7dfd78e.Emscripten.clang"
  },
  "schemaVersion": "3.4.16",
  "updatedAt": "2024-12-09T19:25:16.422Z",
  "networkType": "ethereum",
  "devdoc": {
    "kind": "dev",
    "methods": {},
    "version": 1
  },
  "userdoc": {
    "kind": "user",
    "methods": {},
    "version": 1
  }
}