{
  "contractName": "CertificateRegistryV2",
  "abi": [
    {
      "inputs": [],
      "stateMutability": "nonpayable",
      "type": "constructor"
    },
    {
      "anonymous": false,
      "inputs": [
        {
          "indexed": true,
          "internalType": "string",
          "name": "certificateHash",
          "type": "string"
        },
        {
          "indexed": false,
          "internalType": "string",
          "name": "instituteName",
          "type": "string"
        },
        {
          "indexed": false,
          "internalType": "uint256",
          "name": "timestamp",
          "type": "uint256"
        }
      ],
      "name": "CertificateIssued",
      "type": "event"
    },
    {
      "anonymous": false,
      "inputs": [
        {
          "indexed": true,
          "internalType": "string",
          "name": "certificateHash",
          "type": "string"
        }
      ],
      "name": "CertificateRevoked",
      "type": "event"
    },
    {
      "anonymous": false,
      "inputs": [
        {
          "indexed": true,
          "internalType": "address",
          "name": "institute",
          "type": "address"
        }
      ],
      "name": "InstituteAuthorized",
      "type": "event"
    },
    {
      "anonymous": false,
      "inputs": [
        {
          "indexed": true,
          "internalType": "address",
          "name": "institute",
          "type": "address"
        }
      ],
      "name": "InstituteRevoked",
      "type": "event"
    },
    {
      "inputs": [
        {
          "internalType": "address",
          "name": "",
          "type": "address"
        }
      ],
      "name": "authorizedInstitutes",
      "outputs": [
        {
          "internalType": "bool",
          "name": "",
          "type": "bool"
        }
      ],
      "stateMutability": "view",
      "type": "function",
      "constant": true
    },
    {
      "inputs": [
        {
          "internalType": "string",
          "name": "",
          "type": "string"
        }
      ],
      "name": "certificateHashes",
      "outputs": [
        {
          "internalType": "string",
          "name": "certificateHash",
          "type": "string"
        },
        {
          "internalType": "string",
          "name": "instituteName",
          "type": "string"
        },
        {
          "internalType": "uint256",
          "name": "timestamp",
          "type": "uint256"
        },
        {
          "internalType": "bool",
          "name": "isValid",
          "type": "bool"
        }
      ],
      "stateMutability": "view",
      "type": "function",
      "constant": true
    },
    {
      "inputs": [],
      "name": "owner",
      "outputs": [
        {
          "internalType": "address",
          "name": "",
          "type": "address"
        }
      ],
      "stateMutability": "view",
      "type": "function",
      "constant": true
    },
    {
      "inputs": [
        {
          "internalType": "address",
          "name": "_institute",
          "type": "address"
        }
      ],
      "name": "authorizeInstitute",
      "outputs": [],
      "stateMutability": "nonpayable",
      "type": "function"
    },
    {
      "inputs": [
        {
          "internalType": "address",
          "name": "_institute",
          "type": "address"
        }
      ],
      "name": "revokeInstitute",
      "outputs": [],
      "stateMutability": "nonpayable",
      "type": "function"
    },
    {
      "inputs": [
        {
          "internalType": "string",
          "name": "_certificateHash",
          "type": "string"
        },
        {
          "internalType": "string",
          "name": "_instituteName",
          "type": "string"
        }
      ],
      "name": "issueCertificate",
      "outputs": [],
      "stateMutability": "nonpayable",
      "type": "function"
    },
    {
      "inputs": [
        {
          "internalType": "string",
          "name": "_certificateHash",
          "type": "string"
        }
      ],
      "name": "verifyCertificate",
      "outputs": [
        {
          "internalType": "bool",
          "name": "isValid",
          "type": "bool"
        },
        {
          "internalType": "string",
          "name": "instituteName",
          "type": "string"
        },
        {
          "internalType": "uint256",
          "name": "timestamp",
          "type": "uint256"
        }
      ],
      "stateMutability": "view",
      "type": "function",
      "constant": true
    },
    {
      "inputs": [
        {
          "internalType": "string",
          "name": "_certificateHash",
          "type": "string"
        }
      ],
      "name": "revokeCertificate",
      "outputs": [],
      "stateMutability": "nonpayable",
      "type": "function"
    },
    {
      "inputs": [
        {
          "internalType": "string",
          "name": "_certificateHash",
          "type": "string"
        }
      ],
      "name": "certificateExists",
      "outputs": [
        {
          "internalType": "bool",
          "name": "",
          "type": "bool"
        }
      ],
      "stateMutability": "view",
      "type": "function",
      "constant": true
    },
    {
      "inputs": [
        {
          "internalType": "string",
          "name": "_certificateHash",
          "type": "string"
        }
      ],
      "name": "getCertificateDetails",
      "outputs": [
        {
          "internalType": "string",
          "name": "certificateHash",
          "type": "string"
        },
        {
          "internalType": "string",
          "name": "instituteName",
          "type": "string"
        },
        {
          "internalType": "uint256",
          "name": "timestamp",
          "type": "uint256"
        },
        {
          "internalType": "bool",
          "name": "isValid",
          "type": "bool"
        }
      ],
      "stateMutability": "view",
      "type": "function",
      "constant": true
    }
  ],
  "bytecode": "0x608060405234801561001057600080fd5b5033600260006101000a81548173ffffffffffffffffffffffffffffffffffffffff021916908373ffffffffffffffffffffffffffffffffffffffff16021790555060018060003373ffffffffffffffffffffffffffffffffffffffff1673ffffffffffffffffffffffffffffffffffffffff16815260200190815260200160002060006101000a81548160ff02191690831515021790555061164c806100b86000396000f3fe608060405234801561001057600080fd5b506004361061009e5760003560e01c806362594b241161006657806362594b241461016e5780637aa7155b1461018a5780638b23d875146101a65780638da5cb5b146101d8578063fa433b36146101f65761009e565b80630655f037146100a35780630a88deaf146100d3578063142e154214610106578063211bbe71146101225780635244f9e11461013e575b600080fd5b6100bd60048036038101906100b89190610f6e565b610229565b6040516100ca91906112b0565b60405180910390f35b6100ed60048036038101906100e89190610f6e565b610262565b6040516100fd9493929190611309565b60405180910390f35b610120600480360381019061011b9190610f6e565b6103c5565b005b61013c60048036038101906101379190610faf565b61053e565b005b61015860048036038101906101539190610f45565b6107bd565b60405161016591906112b0565b60405180910390f35b61018860048036038101906101839190610f45565b6107dd565b005b6101a4600480360381019061019f9190610f45565b61090a565b005b6101c060048036038101906101bb9190610f6e565b610a38565b6040516101cf939291906112cb565b60405180910390f35b6101e0610c18565b6040516101ed9190611295565b60405180910390f35b610210600480360381019061020b9190610f6e565b610c3e565b6040516102209493929190611309565b60405180910390f35b60008060008360405161023c919061127e565b908152602001604051809103902060000180546102589061155e565b9050119050919050565b60008180516020810182018051848252602083016020850120818352809550505050505060009150905080600001805461029b9061155e565b80601f01602080910402602001604051908101604052809291908181526020018280546102c79061155e565b80156103145780601f106102e957610100808354040283529160200191610314565b820191906000526020600020905b8154815290600101906020018083116102f757829003601f168201915b5050505050908060010180546103299061155e565b80601f01602080910402602001604051908101604052809291908181526020018280546103559061155e565b80156103a25780601f10610377576101008083540402835291602001916103a2565b820191906000526020600020905b81548152906001019060200180831161038557829003601f168201915b5050505050908060020154908060030160009054906101000a900460ff16905084565b600160003373ffffffffffffffffffffffffffffffffffffffff1673ffffffffffffffffffffffffffffffffffffffff16815260200190815260200160002060009054906101000a900460ff16610451576040517f08c379a00000000000000000000000000000000000000000000000000000000081526004016104489061140c565b60405180910390fd5b60008082604051610462919061127e565b9081526020016040518091039020600001805461047e9061155e565b9050116104c0576040517f08c379a00000000000000000000000000000000000000000000000000000000081526004016104b7906113ec565b60405180910390fd5b600080826040516104d1919061127e565b908152602001604051809103902060030160006101000a81548160ff02191690831515021790555080604051610507919061127e565b60405180910390207f266095b5af7e2323760fef151f1d78896740cd2cc1b73a6357ff9e4c3fdae74060405160405180910390a250565b600160003373ffffffffffffffffffffffffffffffffffffffff1673ffffffffffffffffffffffffffffffffffffffff16815260200190815260200160002060009054906101000a900460ff166105ca576040517f08c379a00000000000000000000000000000000000000000000000000000000081526004016105c19061140c565b60405180910390fd5b600082511161060e576040517f08c379a00000000000000000000000000000000000000000000000000000000081526004016106059061142c565b60405180910390fd5b6000815111610652576040517f08c379a0000000000000000000000000000000000000000000000000000000008152600401610649906113ac565b60405180910390fd5b60008083604051610663919061127e565b9081526020016040518091039020600001805461067f9061155e565b9050146106c1576040517f08c379a00000000000000000000000000000000000000000000000000000000081526004016106b8906113cc565b60405180910390fd5b6040518060800160405280838152602001828152602001428152602001600115158152506000836040516106f5919061127e565b9081526020016040518091039020600082015181600001908051906020019061071f929190610e25565b50602082015181600101908051906020019061073c929190610e25565b506040820151816002015560608201518160030160006101000a81548160ff02191690831515021790555090505081604051610778919061127e565b60405180910390207f24a04857698b6d767a0b6c787412aaeba1015d94408ca75c0a32aff28c2074aa82426040516107b192919061135c565b60405180910390a25050565b60016020528060005260406000206000915054906101000a900460ff1681565b600260009054906101000a900473ffffffffffffffffffffffffffffffffffffffff1673ffffffffffffffffffffffffffffffffffffffff163373ffffffffffffffffffffffffffffffffffffffff161461086d576040517f08c379a00000000000000000000000000000000000000000000000000000000081526004016108649061138c565b60405180910390fd5b60018060008373ffffffffffffffffffffffffffffffffffffffff1673ffffffffffffffffffffffffffffffffffffffff16815260200190815260200160002060006101000a81548160ff0219169083151502179055508073ffffffffffffffffffffffffffffffffffffffff167fa3ac0e52997e8026f67418b4ee52b35f273caecd9f0e37e7908b20a8fe23c34160405160405180910390a250565b600260009054906101000a900473ffffffffffffffffffffffffffffffffffffffff1673ffffffffffffffffffffffffffffffffffffffff163373ffffffffffffffffffffffffffffffffffffffff161461099a576040517f08c379a00000000000000000000000000000000000000000000000000000000081526004016109919061138c565b60405180910390fd5b6000600160008373ffffffffffffffffffffffffffffffffffffffff1673ffffffffffffffffffffffffffffffffffffffff16815260200190815260200160002060006101000a81548160ff0219169083151502179055508073ffffffffffffffffffffffffffffffffffffffff167f32cd7676e8b68afcba9891ca52ebb1ad809d40e6b78287eb183d0fbe18a93d0160405160405180910390a250565b60006060600080600085604051610a4f919061127e565b9081526020016040518091039020604051806080016040529081600082018054610a789061155e565b80601f0160208091040260200160405190810160405280929190818152602001828054610aa49061155e565b8015610af15780601f10610ac657610100808354040283529160200191610af1565b820191906000526020600020905b815481529060010190602001808311610ad457829003601f168201915b50505050508152602001600182018054610b0a9061155e565b80601f0160208091040260200160405190810160405280929190818152602001828054610b369061155e565b8015610b835780601f10610b5857610100808354040283529160200191610b83565b820191906000526020600020905b815481529060010190602001808311610b6657829003601f168201915b50505050508152602001600282015481526020016003820160009054906101000a900460ff1615151515815250509050600081600001515111610bfb576040517f08c379a0000000000000000000000000000000000000000000000000000000008152600401610bf2906113ec565b60405180910390fd5b806060015181602001518260400151935093509350509193909250565b600260009054906101000a900473ffffffffffffffffffffffffffffffffffffffff1681565b60608060008060008086604051610c55919061127e565b9081526020016040518091039020604051806080016040529081600082018054610c7e9061155e565b80601f0160208091040260200160405190810160405280929190818152602001828054610caa9061155e565b8015610cf75780601f10610ccc57610100808354040283529160200191610cf7565b820191906000526020600020905b815481529060010190602001808311610cda57829003601f168201915b50505050508152602001600182018054610d109061155e565b80601f0160208091040260200160405190810160405280929190818152602001828054610d3c9061155e565b8015610d895780601f10610d5e57610100808354040283529160200191610d89565b820191906000526020600020905b815481529060010190602001808311610d6c57829003601f168201915b50505050508152602001600282015481526020016003820160009054906101000a900460ff1615151515815250509050600081600001515111610e01576040517f08c379a0000000000000000000000000000000000000000000000000000000008152600401610df8906113ec565b60405180910390fd5b80600001518160200151826040015183606001519450945094509450509193509193565b828054610e319061155e565b90600052602060002090601f016020900481019282610e535760008555610e9a565b82601f10610e6c57805160ff1916838001178555610e9a565b82800160010185558215610e9a579182015b82811115610e99578251825591602001919060010190610e7e565b5b509050610ea79190610eab565b5090565b5b80821115610ec4576000816000905550600101610eac565b5090565b6000610edb610ed68461147d565b61144c565b905082815260208101848484011115610ef357600080fd5b610efe84828561151c565b509392505050565b600081359050610f15816115ff565b92915050565b600082601f830112610f2c57600080fd5b8135610f3c848260208601610ec8565b91505092915050565b600060208284031215610f5757600080fd5b6000610f6584828501610f06565b91505092915050565b600060208284031215610f8057600080fd5b600082013567ffffffffffffffff811115610f9a57600080fd5b610fa684828501610f1b565b91505092915050565b60008060408385031215610fc257600080fd5b600083013567ffffffffffffffff811115610fdc57600080fd5b610fe885828601610f1b565b925050602083013567ffffffffffffffff81111561100557600080fd5b61101185828601610f1b565b9150509250929050565b611024816114d4565b82525050565b611033816114e6565b82525050565b6000611044826114ad565b61104e81856114b8565b935061105e81856020860161152b565b611067816115ee565b840191505092915050565b600061107d826114ad565b61108781856114c9565b935061109781856020860161152b565b80840191505092915050565b60006110b06026836114b8565b91507f4f6e6c7920746865206f776e65722063616e20706572666f726d20746869732060008301527f616374696f6e00000000000000000000000000000000000000000000000000006020830152604082019050919050565b6000611116601e836114b8565b91507f496e73746974757465206e616d652063616e6e6f7420626520656d70747900006000830152602082019050919050565b6000611156601f836114b8565b91507f4365727469666963617465206861736820616c726561647920657869737473006000830152602082019050919050565b60006111966015836114b8565b91507f4365727469666963617465206e6f7420666f756e6400000000000000000000006000830152602082019050919050565b60006111d66031836114b8565b91507f4f6e6c7920617574686f72697a656420696e73746974757465732063616e206960008301527f73737565206365727469666963617465730000000000000000000000000000006020830152604082019050919050565b600061123c6020836114b8565b91507f436572746966696361746520686173682063616e6e6f7420626520656d7074796000830152602082019050919050565b61127881611512565b82525050565b600061128a8284611072565b915081905092915050565b60006020820190506112aa600083018461101b565b92915050565b60006020820190506112c5600083018461102a565b92915050565b60006060820190506112e0600083018661102a565b81810360208301526112f28185611039565b9050611301604083018461126f565b949350505050565b600060808201905081810360008301526113238187611039565b905081810360208301526113378186611039565b9050611346604083018561126f565b611353606083018461102a565b95945050505050565b600060408201905081810360008301526113768185611039565b9050611385602083018461126f565b9392505050565b600060208201905081810360008301526113a5816110a3565b9050919050565b600060208201905081810360008301526113c581611109565b9050919050565b600060208201905081810360008301526113e581611149565b9050919050565b6000602082019050818103600083015261140581611189565b9050919050565b60006020820190508181036000830152611425816111c9565b9050919050565b600060208201905081810360008301526114458161122f565b9050919050565b6000604051905081810181811067ffffffffffffffff82111715611473576114726115bf565b5b8060405250919050565b600067ffffffffffffffff821115611498576114976115bf565b5b601f19601f8301169050602081019050919050565b600081519050919050565b600082825260208201905092915050565b600081905092915050565b60006114df826114f2565b9050919050565b60008115159050919050565b600073ffffffffffffffffffffffffffffffffffffffff82169050919050565b6000819050919050565b82818337600083830152505050565b60005b8381101561154957808201518184015260208101905061152e565b83811115611558576000848401525b50505050565b6000600282049050600182168061157657607f821691505b6020821081141561158a57611589611590565b5b50919050565b7f4e487b7100000000000000000000000000000000000000000000000000000000600052602260045260246000fd5b7f4e487b7100000000000000000000000000000000000000000000000000000000600052604160045260246000fd5b6000601f19601f8301169050919050565b611608816114d4565b811461161357600080fd5b5056fea2646970667358221220ad62b98daf3d36360e2fc9689898e328ef0288c3e4c28cd385a52771ba5a20b464736f6c63430008000033",
  "immutableReferences": {},
  "source": "// SPDX-License-Identifier: MIT\n\npragma solidity ^0.8.0;\n\ncontract CertificateRegistryV2 {\n    struct CertificateHash {\n        string certificateHash; // Hash of certificate ID + public key\n        string instituteName; // Institute name for verification display\n        uint256 timestamp; // When the certificate was issued\n        bool isValid; // Certificate validity status\n    }\n\n    mapping(string => CertificateHash) public certificateHashes;\n    mapping(address => bool) public authorizedInstitutes; // Authorized institutes that can issue certificates\n    address public owner;\n\n    event CertificateIssued(string indexed certificateHash, string instituteName, uint256 timestamp);\n    event CertificateRevoked(string indexed certificateHash);\n    event InstituteAuthorized(address indexed institute);\n    event InstituteRevoked(address indexed institute);\n\n    constructor() {\n        owner = msg.sender;\n        authorizedInstitutes[msg.sender] = true; // Owner is automatically authorized\n    }\n\n    modifier onlyOwner() {\n        require(msg.sender == owner, \"Only the owner can perform this action\");\n        _;\n    }\n\n    modifier onlyAuthorized() {\n        require(authorizedInstitutes[msg.sender], \"Only authorized institutes can issue certificates\");\n        _;\n    }\n\n    // Add authorized institute\n    function authorizeInstitute(address _institute) public onlyOwner {\n        authorizedInstitutes[_institute] = true;\n        emit InstituteAuthorized(_institute);\n    }\n\n    // Remove authorized institute\n    function revokeInstitute(address _institute) public onlyOwner {\n        authorizedInstitutes[_institute] = false;\n        emit InstituteRevoked(_institute);\n    }\n\n    // Issue certificate with hash\n    function issueCertificate(\n        string memory _certificateHash,\n        string memory _instituteName\n    ) public onlyAuthorized {\n        require(bytes(_certificateHash).length > 0, \"Certificate hash cannot be empty\");\n        require(bytes(_instituteName).length > 0, \"Institute name cannot be empty\");\n        require(bytes(certificateHashes[_certificateHash].certificateHash).length == 0, \"Certificate hash already exists\");\n\n        certificateHashes[_certificateHash] = CertificateHash(\n            _certificateHash,\n            _instituteName,\n            block.timestamp,\n            true // Initially valid\n        );\n\n        emit CertificateIssued(_certificateHash, _instituteName, block.timestamp);\n    }\n\n    // Verify certificate by hash\n    function verifyCertificate(string memory _certificateHash)\n        public\n        view\n        returns (\n            bool isValid,\n            string memory instituteName,\n            uint256 timestamp\n        )\n    {\n        CertificateHash memory certHash = certificateHashes[_certificateHash];\n        \n        // Check if certificate exists\n        require(bytes(certHash.certificateHash).length > 0, \"Certificate not found\");\n        \n        return (\n            certHash.isValid,\n            certHash.instituteName,\n            certHash.timestamp\n        );\n    }\n\n    // Revoke certificate\n    function revokeCertificate(string memory _certificateHash) public onlyAuthorized {\n        require(bytes(certificateHashes[_certificateHash].certificateHash).length > 0, \"Certificate not found\");\n        \n        certificateHashes[_certificateHash].isValid = false;\n        emit CertificateRevoked(_certificateHash);\n    }\n\n    // Check if certificate exists (returns boolean)\n    function certificateExists(string memory _certificateHash) public view returns (bool) {\n        return bytes(certificateHashes[_certificateHash].certificateHash).length > 0;\n    }\n\n    // Get certificate details\n    function getCertificateDetails(string memory _certificateHash)\n        public\n        view\n        returns (\n            string memory certificateHash,\n            string memory instituteName,\n            uint256 timestamp,\n            bool isValid\n        )\n    {\n        CertificateHash memory certHash = certificateHashes[_certificateHash];\n        require(bytes(certHash.certificateHash).length > 0, \"Certificate not found\");\n        \n        return (\n            certHash.certificateHash,\n            certHash.instituteName,\n            certHash.timestamp,\n            certHash.isValid\n        );\n    }\n}",
  "sourcePath": "/home/runner/workspace/contracts/CertificateRegistryV2.sol",
  "compiler": {
    "name": "solc",
    "version": "0.8.0+commit.c7dfd78e.Emscripten.clang"
  },
  "schemaVersion": "3.4.16",
  "updatedAt": "2025-09-07T10:34:14.627Z",
  "networkType": "ethereum",
  "devdoc": {
    "kind": "dev",
    "methods": {},
    "version": 1
  },
  "userdoc": {
    "kind": "user",
    "methods": {},
    "version": 1
  }
}