{
  "contractName": "InstituteRegistry",
  "abi": [
    {
      "inputs": [],
      "stateMutability": "nonpayable",
      "type": "constructor"
    },
    {
      "anonymous": false,
      "inputs": [
        {
          "indexed": true,
          "internalType": "string",
          "name": "certificateHash",
          "type": "string"
        },
        {
          "indexed": false,
          "internalType": "string",
          "name": "instituteId",
          "type": "string"
        },
        {
          "indexed": false,
          "internalType": "string",
          "name": "instituteName",
          "type": "string"
        },
        {
          "indexed": false,
          "internalType": "uint256",
          "name": "timestamp",
          "type": "uint256"
        }
      ],
      "name": "CertificateIssued",
      "type": "event"
    },
    {
      "anonymous": false,
      "inputs": [
        {
          "indexed": true,
          "internalType": "string",
          "name": "certificateHash",
          "type": "string"
        }
      ],
      "name": "CertificateRevoked",
      "type": "event"
    },
    {
      "anonymous": false,
      "inputs": [
        {
          "indexed": true,
          "internalType": "string",
          "name": "instituteId",
          "type": "string"
        }
      ],
      "name": "InstituteDeactivated",
      "type": "event"
    },
    {
      "anonymous": false,
      "inputs": [
        {
          "indexed": true,
          "internalType": "string",
          "name": "instituteId",
          "type": "string"
        },
        {
          "indexed": false,
          "internalType": "string",
          "name": "instituteName",
          "type": "string"
        },
        {
          "indexed": false,
          "internalType": "uint256",
          "name": "timestamp",
          "type": "uint256"
        }
      ],
      "name": "InstituteRegistered",
      "type": "event"
    },
    {
      "anonymous": false,
      "inputs": [
        {
          "indexed": true,
          "internalType": "string",
          "name": "uniqueId",
          "type": "string"
        },
        {
          "indexed": false,
          "internalType": "string",
          "name": "instituteId",
          "type": "string"
        },
        {
          "indexed": false,
          "internalType": "uint256",
          "name": "timestamp",
          "type": "uint256"
        }
      ],
      "name": "UniqueIdGenerated",
      "type": "event"
    },
    {
      "inputs": [
        {
          "internalType": "string",
          "name": "",
          "type": "string"
        }
      ],
      "name": "certificateHashes",
      "outputs": [
        {
          "internalType": "string",
          "name": "certificateHash",
          "type": "string"
        },
        {
          "internalType": "string",
          "name": "instituteName",
          "type": "string"
        },
        {
          "internalType": "string",
          "name": "instituteId",
          "type": "string"
        },
        {
          "internalType": "uint256",
          "name": "timestamp",
          "type": "uint256"
        },
        {
          "internalType": "bool",
          "name": "isValid",
          "type": "bool"
        }
      ],
      "stateMutability": "view",
      "type": "function",
      "constant": true
    },
    {
      "inputs": [
        {
          "internalType": "string",
          "name": "",
          "type": "string"
        }
      ],
      "name": "institutes",
      "outputs": [
        {
          "internalType": "string",
          "name": "instituteName",
          "type": "string"
        },
        {
          "internalType": "bytes32",
          "name": "credentialHash",
          "type": "bytes32"
        },
        {
          "internalType": "uint256",
          "name": "registeredAt",
          "type": "uint256"
        },
        {
          "internalType": "bool",
          "name": "isActive",
          "type": "bool"
        },
        {
          "internalType": "uint256",
          "name": "certificatesIssued",
          "type": "uint256"
        },
        {
          "internalType": "uint256",
          "name": "uniqueIdsGenerated",
          "type": "uint256"
        }
      ],
      "stateMutability": "view",
      "type": "function",
      "constant": true
    },
    {
      "inputs": [],
      "name": "owner",
      "outputs": [
        {
          "internalType": "address",
          "name": "",
          "type": "address"
        }
      ],
      "stateMutability": "view",
      "type": "function",
      "constant": true
    },
    {
      "inputs": [],
      "name": "totalCertificates",
      "outputs": [
        {
          "internalType": "uint256",
          "name": "",
          "type": "uint256"
        }
      ],
      "stateMutability": "view",
      "type": "function",
      "constant": true
    },
    {
      "inputs": [],
      "name": "totalInstitutes",
      "outputs": [
        {
          "internalType": "uint256",
          "name": "",
          "type": "uint256"
        }
      ],
      "stateMutability": "view",
      "type": "function",
      "constant": true
    },
    {
      "inputs": [],
      "name": "totalUniqueIds",
      "outputs": [
        {
          "internalType": "uint256",
          "name": "",
          "type": "uint256"
        }
      ],
      "stateMutability": "view",
      "type": "function",
      "constant": true
    },
    {
      "inputs": [
        {
          "internalType": "string",
          "name": "",
          "type": "string"
        }
      ],
      "name": "uniqueIds",
      "outputs": [
        {
          "internalType": "string",
          "name": "uniqueId",
          "type": "string"
        },
        {
          "internalType": "string",
          "name": "instituteId",
          "type": "string"
        },
        {
          "internalType": "uint256",
          "name": "generatedAt",
          "type": "uint256"
        },
        {
          "internalType": "bool",
          "name": "isActive",
          "type": "bool"
        }
      ],
      "stateMutability": "view",
      "type": "function",
      "constant": true
    },
    {
      "inputs": [
        {
          "internalType": "string",
          "name": "_instituteId",
          "type": "string"
        },
        {
          "internalType": "string",
          "name": "_instituteName",
          "type": "string"
        },
        {
          "internalType": "bytes32",
          "name": "_credentialHash",
          "type": "bytes32"
        }
      ],
      "name": "registerInstitute",
      "outputs": [],
      "stateMutability": "nonpayable",
      "type": "function"
    },
    {
      "inputs": [
        {
          "internalType": "string",
          "name": "_instituteId",
          "type": "string"
        },
        {
          "internalType": "bytes32",
          "name": "_credentialHash",
          "type": "bytes32"
        }
      ],
      "name": "verifyInstituteCredentials",
      "outputs": [
        {
          "internalType": "bool",
          "name": "",
          "type": "bool"
        }
      ],
      "stateMutability": "view",
      "type": "function",
      "constant": true
    },
    {
      "inputs": [
        {
          "internalType": "string",
          "name": "_uniqueId",
          "type": "string"
        },
        {
          "internalType": "string",
          "name": "_instituteId",
          "type": "string"
        }
      ],
      "name": "generateUniqueId",
      "outputs": [],
      "stateMutability": "nonpayable",
      "type": "function"
    },
    {
      "inputs": [
        {
          "internalType": "string",
          "name": "_certificateHash",
          "type": "string"
        },
        {
          "internalType": "string",
          "name": "_instituteId",
          "type": "string"
        },
        {
          "internalType": "string",
          "name": "_instituteName",
          "type": "string"
        }
      ],
      "name": "issueCertificate",
      "outputs": [],
      "stateMutability": "nonpayable",
      "type": "function"
    },
    {
      "inputs": [
        {
          "internalType": "string",
          "name": "_certificateHash",
          "type": "string"
        }
      ],
      "name": "verifyCertificate",
      "outputs": [
        {
          "internalType": "bool",
          "name": "isValid",
          "type": "bool"
        },
        {
          "internalType": "string",
          "name": "instituteName",
          "type": "string"
        },
        {
          "internalType": "string",
          "name": "instituteId",
          "type": "string"
        },
        {
          "internalType": "uint256",
          "name": "timestamp",
          "type": "uint256"
        }
      ],
      "stateMutability": "view",
      "type": "function",
      "constant": true
    },
    {
      "inputs": [
        {
          "internalType": "string",
          "name": "_certificateHash",
          "type": "string"
        }
      ],
      "name": "revokeCertificate",
      "outputs": [],
      "stateMutability": "nonpayable",
      "type": "function"
    },
    {
      "inputs": [
        {
          "internalType": "string",
          "name": "_instituteId",
          "type": "string"
        }
      ],
      "name": "getInstituteInfo",
      "outputs": [
        {
          "internalType": "string",
          "name": "instituteName",
          "type": "string"
        },
        {
          "internalType": "uint256",
          "name": "registeredAt",
          "type": "uint256"
        },
        {
          "internalType": "bool",
          "name": "isActive",
          "type": "bool"
        },
        {
          "internalType": "uint256",
          "name": "certificatesIssued",
          "type": "uint256"
        },
        {
          "internalType": "uint256",
          "name": "uniqueIdsGenerated",
          "type": "uint256"
        }
      ],
      "stateMutability": "view",
      "type": "function",
      "constant": true
    },
    {
      "inputs": [
        {
          "internalType": "string",
          "name": "_uniqueId",
          "type": "string"
        }
      ],
      "name": "verifyUniqueId",
      "outputs": [
        {
          "internalType": "bool",
          "name": "exists",
          "type": "bool"
        },
        {
          "internalType": "string",
          "name": "instituteId",
          "type": "string"
        },
        {
          "internalType": "uint256",
          "name": "generatedAt",
          "type": "uint256"
        },
        {
          "internalType": "bool",
          "name": "isActive",
          "type": "bool"
        }
      ],
      "stateMutability": "view",
      "type": "function",
      "constant": true
    },
    {
      "inputs": [
        {
          "internalType": "string",
          "name": "_instituteId",
          "type": "string"
        }
      ],
      "name": "deactivateInstitute",
      "outputs": [],
      "stateMutability": "nonpayable",
      "type": "function"
    },
    {
      "inputs": [
        {
          "internalType": "string",
          "name": "_certificateHash",
          "type": "string"
        }
      ],
      "name": "certificateExists",
      "outputs": [
        {
          "internalType": "bool",
          "name": "",
          "type": "bool"
        }
      ],
      "stateMutability": "view",
      "type": "function",
      "constant": true
    }
  ],
  "bytecode": "0x608060405234801561001057600080fd5b5033600360006101000a81548173ffffffffffffffffffffffffffffffffffffffff021916908373ffffffffffffffffffffffffffffffffffffffff160217905550612af1806100616000396000f3fe608060405234801561001057600080fd5b506004361061010b5760003560e01c806360d6e2de116100a25780639fe649a6116100715780639fe649a6146102f0578063b3fb1f151461030c578063beec1caa1461032a578063d87e513714610346578063e796e50a146103765761010b565b806360d6e2de146102375780638b23d8751461026a5780638da5cb5b1461029d5780639da795c9146102bb5761010b565b8063142e1542116100de578063142e1542146101c35780633de2974c146101df5780634db39e5c146101fb578063596b772f146102195761010b565b80630655f037146101105780630a88deaf146101405780630d0935121461017457806313b3b432146101a7575b600080fd5b61012a60048036038101906101259190611db3565b6103aa565b6040516101379190612408565b60405180910390f35b61015a60048036038101906101559190611db3565b6103e3565b60405161016b95949392919061252a565b60405180910390f35b61018e60048036038101906101899190611db3565b6105d4565b60405161019e9493929190612476565b60405180910390f35b6101c160048036038101906101bc9190611db3565b6107a5565b005b6101dd60048036038101906101d89190611db3565b610916565b005b6101f960048036038101906101f49190611e48565b610a95565b005b610203610e2d565b6040516102109190612854565b60405180910390f35b610221610e33565b60405161022e9190612854565b60405180910390f35b610251600480360381019061024c9190611db3565b610e39565b60405161026194939291906125d7565b60405180910390f35b610284600480360381019061027f9190611db3565b610f9c565b6040516102949493929190612423565b60405180910390f35b6102a5611216565b6040516102b291906123ed565b60405180910390f35b6102d560048036038101906102d09190611db3565b61123c565b6040516102e7969594939291906124c2565b60405180910390f35b61030a60048036038101906103059190611eb4565b611323565b005b610314611608565b6040516103219190612854565b60405180910390f35b610344600480360381019061033f9190611f33565b61160e565b005b610360600480360381019061035b9190611df4565b6119d8565b60405161036d9190612408565b60405180910390f35b610390600480360381019061038b9190611db3565b611b16565b6040516103a195949392919061265a565b60405180910390f35b6000806002836040516103bd91906123d6565b908152602001604051809103902060000180546103d99061298b565b9050119050919050565b60028180516020810182018051848252602083016020850120818352809550505050505060009150905080600001805461041c9061298b565b80601f01602080910402602001604051908101604052809291908181526020018280546104489061298b565b80156104955780601f1061046a57610100808354040283529160200191610495565b820191906000526020600020905b81548152906001019060200180831161047857829003601f168201915b5050505050908060010180546104aa9061298b565b80601f01602080910402602001604051908101604052809291908181526020018280546104d69061298b565b80156105235780601f106104f857610100808354040283529160200191610523565b820191906000526020600020905b81548152906001019060200180831161050657829003601f168201915b5050505050908060020180546105389061298b565b80601f01602080910402602001604051908101604052809291908181526020018280546105649061298b565b80156105b15780601f10610586576101008083540402835291602001916105b1565b820191906000526020600020905b81548152906001019060200180831161059457829003601f168201915b5050505050908060030154908060040160009054906101000a900460ff16905085565b6000606060008060006001866040516105ed91906123d6565b90815260200160405180910390206040518060800160405290816000820180546106169061298b565b80601f01602080910402602001604051908101604052809291908181526020018280546106429061298b565b801561068f5780601f106106645761010080835404028352916020019161068f565b820191906000526020600020905b81548152906001019060200180831161067257829003601f168201915b505050505081526020016001820180546106a89061298b565b80601f01602080910402602001604051908101604052809291908181526020018280546106d49061298b565b80156107215780601f106106f657610100808354040283529160200191610721565b820191906000526020600020905b81548152906001019060200180831161070457829003601f168201915b50505050508152602001600282015481526020016003820160009054906101000a900460ff161515151581525050905060008160400151141561078357600080600060405180602001604052806000815250919094509450945094505061079e565b60018160200151826040015183606001519450945094509450505b9193509193565b600360009054906101000a900473ffffffffffffffffffffffffffffffffffffffff1673ffffffffffffffffffffffffffffffffffffffff163373ffffffffffffffffffffffffffffffffffffffff1614610835576040517f08c379a000000000000000000000000000000000000000000000000000000000815260040161082c906126d4565b60405180910390fd5b6000808260405161084691906123d6565b90815260200160405180910390206002015411610898576040517f08c379a000000000000000000000000000000000000000000000000000000000815260040161088f906126b4565b60405180910390fd5b600080826040516108a991906123d6565b908152602001604051809103902060030160006101000a81548160ff021916908315150217905550806040516108df91906123d6565b60405180910390207f566b10ca2cfea30a5e6c76e95cd228fc01f2a108e257cca29c3af3f2a7f7a31e60405160405180910390a250565b600360009054906101000a900473ffffffffffffffffffffffffffffffffffffffff1673ffffffffffffffffffffffffffffffffffffffff163373ffffffffffffffffffffffffffffffffffffffff16146109a6576040517f08c379a000000000000000000000000000000000000000000000000000000000815260040161099d906126d4565b60405180910390fd5b60006002826040516109b891906123d6565b908152602001604051809103902060000180546109d49061298b565b905011610a16576040517f08c379a0000000000000000000000000000000000000000000000000000000008152600401610a0d906127f4565b60405180910390fd5b6000600282604051610a2891906123d6565b908152602001604051809103902060040160006101000a81548160ff02191690831515021790555080604051610a5e91906123d6565b60405180910390207f266095b5af7e2323760fef151f1d78896740cd2cc1b73a6357ff9e4c3fdae74060405160405180910390a250565b600360009054906101000a900473ffffffffffffffffffffffffffffffffffffffff1673ffffffffffffffffffffffffffffffffffffffff163373ffffffffffffffffffffffffffffffffffffffff1614610b25576040517f08c379a0000000000000000000000000000000000000000000000000000000008152600401610b1c906126d4565b60405180910390fd5b6000825111610b69576040517f08c379a0000000000000000000000000000000000000000000000000000000008152600401610b6090612754565b60405180910390fd5b6000815111610bad576040517f08c379a0000000000000000000000000000000000000000000000000000000008152600401610ba490612814565b60405180910390fd5b60008082604051610bbe91906123d6565b90815260200160405180910390206002015411610c10576040517f08c379a0000000000000000000000000000000000000000000000000000000008152600401610c0790612794565b60405180910390fd5b600081604051610c2091906123d6565b908152602001604051809103902060030160009054906101000a900460ff16610c7e576040517f08c379a0000000000000000000000000000000000000000000000000000000008152600401610c75906127b4565b60405180910390fd5b6000600183604051610c9091906123d6565b90815260200160405180910390206002015414610ce2576040517f08c379a0000000000000000000000000000000000000000000000000000000008152600401610cd9906126f4565b60405180910390fd5b604051806080016040528083815260200182815260200142815260200160011515815250600183604051610d1691906123d6565b90815260200160405180910390206000820151816000019080519060200190610d40929190611c93565b506020820151816001019080519060200190610d5d929190611c93565b506040820151816002015560608201518160030160006101000a81548160ff021916908315150217905550905050600081604051610d9b91906123d6565b90815260200160405180910390206005016000815480929190610dbd906129bd565b919050555060056000815480929190610dd5906129bd565b919050555081604051610de891906123d6565b60405180910390207fc09ed145df0968400f2b9a6dfacc9c5ce719162f986146c79320d9dd0e226f1e8242604051610e2192919061262a565b60405180910390a25050565b60055481565b60065481565b600181805160208101820180518482526020830160208501208183528095505050505050600091509050806000018054610e729061298b565b80601f0160208091040260200160405190810160405280929190818152602001828054610e9e9061298b565b8015610eeb5780601f10610ec057610100808354040283529160200191610eeb565b820191906000526020600020905b815481529060010190602001808311610ece57829003601f168201915b505050505090806001018054610f009061298b565b80601f0160208091040260200160405190810160405280929190818152602001828054610f2c9061298b565b8015610f795780601f10610f4e57610100808354040283529160200191610f79565b820191906000526020600020905b815481529060010190602001808311610f5c57829003601f168201915b5050505050908060020154908060030160009054906101000a900460ff16905084565b6000606080600080600286604051610fb491906123d6565b90815260200160405180910390206040518060a0016040529081600082018054610fdd9061298b565b80601f01602080910402602001604051908101604052809291908181526020018280546110099061298b565b80156110565780601f1061102b57610100808354040283529160200191611056565b820191906000526020600020905b81548152906001019060200180831161103957829003601f168201915b5050505050815260200160018201805461106f9061298b565b80601f016020809104026020016040519081016040528092919081815260200182805461109b9061298b565b80156110e85780601f106110bd576101008083540402835291602001916110e8565b820191906000526020600020905b8154815290600101906020018083116110cb57829003601f168201915b505050505081526020016002820180546111019061298b565b80601f016020809104026020016040519081016040528092919081815260200182805461112d9061298b565b801561117a5780601f1061114f5761010080835404028352916020019161117a565b820191906000526020600020905b81548152906001019060200180831161115d57829003601f168201915b50505050508152602001600382015481526020016004820160009054906101000a900460ff16151515158152505090506000816000015151116111f2576040517f08c379a00000000000000000000000000000000000000000000000000000000081526004016111e9906127f4565b60405180910390fd5b80608001518160200151826040015183606001519450945094509450509193509193565b600360009054906101000a900473ffffffffffffffffffffffffffffffffffffffff1681565b6000818051602081018201805184825260208301602085012081835280955050505050506000915090508060000180546112759061298b565b80601f01602080910402602001604051908101604052809291908181526020018280546112a19061298b565b80156112ee5780601f106112c3576101008083540402835291602001916112ee565b820191906000526020600020905b8154815290600101906020018083116112d157829003601f168201915b5050505050908060010154908060020154908060030160009054906101000a900460ff16908060040154908060050154905086565b600360009054906101000a900473ffffffffffffffffffffffffffffffffffffffff1673ffffffffffffffffffffffffffffffffffffffff163373ffffffffffffffffffffffffffffffffffffffff16146113b3576040517f08c379a00000000000000000000000000000000000000000000000000000000081526004016113aa906126d4565b60405180910390fd5b60008351116113f7576040517f08c379a00000000000000000000000000000000000000000000000000000000081526004016113ee90612814565b60405180910390fd5b600082511161143b576040517f08c379a000000000000000000000000000000000000000000000000000000000815260040161143290612734565b60405180910390fd5b6000801b811415611481576040517f08c379a000000000000000000000000000000000000000000000000000000000815260040161147890612714565b60405180910390fd5b6000808460405161149291906123d6565b908152602001604051809103902060020154146114e4576040517f08c379a00000000000000000000000000000000000000000000000000000000081526004016114db90612774565b60405180910390fd5b6040518060c0016040528083815260200182815260200142815260200160011515815260200160008152602001600081525060008460405161152691906123d6565b90815260200160405180910390206000820151816000019080519060200190611550929190611c93565b50602082015181600101556040820151816002015560608201518160030160006101000a81548160ff0219169083151502179055506080820151816004015560a08201518160050155905050600460008154809291906115af906129bd565b9190505550826040516115c291906123d6565b60405180910390207f4ef359e57b24ecbecfdbe16a78f6a80206e68dca9d52eda321bbdc137afc961f83426040516115fb92919061262a565b60405180910390a2505050565b60045481565b600360009054906101000a900473ffffffffffffffffffffffffffffffffffffffff1673ffffffffffffffffffffffffffffffffffffffff163373ffffffffffffffffffffffffffffffffffffffff161461169e576040517f08c379a0000000000000000000000000000000000000000000000000000000008152600401611695906126d4565b60405180910390fd5b60008351116116e2576040517f08c379a00000000000000000000000000000000000000000000000000000000081526004016116d990612834565b60405180910390fd5b6000825111611726576040517f08c379a000000000000000000000000000000000000000000000000000000000815260040161171d90612814565b60405180910390fd5b6000808360405161173791906123d6565b90815260200160405180910390206002015411611789576040517f08c379a000000000000000000000000000000000000000000000000000000000815260040161178090612794565b60405180910390fd5b60008260405161179991906123d6565b908152602001604051809103902060030160009054906101000a900460ff166117f7576040517f08c379a00000000000000000000000000000000000000000000000000000000081526004016117ee906127b4565b60405180910390fd5b600060028460405161180991906123d6565b908152602001604051809103902060000180546118259061298b565b905014611867576040517f08c379a000000000000000000000000000000000000000000000000000000000815260040161185e906127d4565b60405180910390fd5b6040518060a00160405280848152602001828152602001838152602001428152602001600115158152506002846040516118a191906123d6565b908152602001604051809103902060008201518160000190805190602001906118cb929190611c93565b5060208201518160010190805190602001906118e8929190611c93565b506040820151816002019080519060200190611905929190611c93565b506060820151816003015560808201518160040160006101000a81548160ff02191690831515021790555090505060008260405161194391906123d6565b90815260200160405180910390206004016000815480929190611965906129bd565b91905055506006600081548092919061197d906129bd565b91905055508260405161199091906123d6565b60405180910390207f96271eaf370790942baffd60b2c0f9dcadd6d8141dbca33de0c8fb12f0efd4848383426040516119cb93929190612592565b60405180910390a2505050565b6000806000846040516119eb91906123d6565b90815260200160405180910390206040518060c0016040529081600082018054611a149061298b565b80601f0160208091040260200160405190810160405280929190818152602001828054611a409061298b565b8015611a8d5780601f10611a6257610100808354040283529160200191611a8d565b820191906000526020600020905b815481529060010190602001808311611a7057829003601f168201915b5050505050815260200160018201548152602001600282015481526020016003820160009054906101000a900460ff16151515158152602001600482015481526020016005820154815250509050600081604001511415611af2576000915050611b10565b8060600151611b05576000915050611b10565b828160200151149150505b92915050565b606060008060008060008087604051611b2f91906123d6565b90815260200160405180910390206040518060c0016040529081600082018054611b589061298b565b80601f0160208091040260200160405190810160405280929190818152602001828054611b849061298b565b8015611bd15780601f10611ba657610100808354040283529160200191611bd1565b820191906000526020600020905b815481529060010190602001808311611bb457829003601f168201915b5050505050815260200160018201548152602001600282015481526020016003820160009054906101000a900460ff161515151581526020016004820154815260200160058201548152505090506000816040015111611c66576040517f08c379a0000000000000000000000000000000000000000000000000000000008152600401611c5d906126b4565b60405180910390fd5b80600001518160400151826060015183608001518460a00151955095509550955095505091939590929450565b828054611c9f9061298b565b90600052602060002090601f016020900481019282611cc15760008555611d08565b82601f10611cda57805160ff1916838001178555611d08565b82800160010185558215611d08579182015b82811115611d07578251825591602001919060010190611cec565b5b509050611d159190611d19565b5090565b5b80821115611d32576000816000905550600101611d1a565b5090565b6000611d49611d44846128a0565b61286f565b905082815260208101848484011115611d6157600080fd5b611d6c848285612949565b509392505050565b600081359050611d8381612aa4565b92915050565b600082601f830112611d9a57600080fd5b8135611daa848260208601611d36565b91505092915050565b600060208284031215611dc557600080fd5b600082013567ffffffffffffffff811115611ddf57600080fd5b611deb84828501611d89565b91505092915050565b60008060408385031215611e0757600080fd5b600083013567ffffffffffffffff811115611e2157600080fd5b611e2d85828601611d89565b9250506020611e3e85828601611d74565b9150509250929050565b60008060408385031215611e5b57600080fd5b600083013567ffffffffffffffff811115611e7557600080fd5b611e8185828601611d89565b925050602083013567ffffffffffffffff811115611e9e57600080fd5b611eaa85828601611d89565b9150509250929050565b600080600060608486031215611ec957600080fd5b600084013567ffffffffffffffff811115611ee357600080fd5b611eef86828701611d89565b935050602084013567ffffffffffffffff811115611f0c57600080fd5b611f1886828701611d89565b9250506040611f2986828701611d74565b9150509250925092565b600080600060608486031215611f4857600080fd5b600084013567ffffffffffffffff811115611f6257600080fd5b611f6e86828701611d89565b935050602084013567ffffffffffffffff811115611f8b57600080fd5b611f9786828701611d89565b925050604084013567ffffffffffffffff811115611fb457600080fd5b611fc086828701611d89565b9150509250925092565b611fd3816128f7565b82525050565b611fe281612909565b82525050565b611ff181612915565b82525050565b6000612002826128d0565b61200c81856128db565b935061201c818560208601612958565b61202581612a93565b840191505092915050565b600061203b826128d0565b61204581856128ec565b9350612055818560208601612958565b80840191505092915050565b600061206e6013836128db565b91507f496e73746974757465206e6f7420666f756e64000000000000000000000000006000830152602082019050919050565b60006120ae6026836128db565b91507f4f6e6c7920746865206f776e65722063616e20706572666f726d20746869732060008301527f616374696f6e00000000000000000000000000000000000000000000000000006020830152604082019050919050565b60006121146018836128db565b91507f556e6971756520494420616c72656164792065786973747300000000000000006000830152602082019050919050565b6000612154601f836128db565b91507f43726564656e7469616c20686173682063616e6e6f7420626520656d707479006000830152602082019050919050565b6000612194601e836128db565b91507f496e73746974757465206e616d652063616e6e6f7420626520656d70747900006000830152602082019050919050565b60006121d46019836128db565b91507f556e697175652049442063616e6e6f7420626520656d707479000000000000006000830152602082019050919050565b6000612214601c836128db565b91507f496e7374697475746520616c72656164792072656769737465726564000000006000830152602082019050919050565b60006122546018836128db565b91507f496e73746974757465206e6f74207265676973746572656400000000000000006000830152602082019050919050565b60006122946017836128db565b91507f496e73746974757465206973206e6f74206163746976650000000000000000006000830152602082019050919050565b60006122d4601f836128db565b91507f4365727469666963617465206861736820616c726561647920657869737473006000830152602082019050919050565b60006123146015836128db565b91507f4365727469666963617465206e6f7420666f756e6400000000000000000000006000830152602082019050919050565b6000612354601c836128db565b91507f496e737469747574652049442063616e6e6f7420626520656d707479000000006000830152602082019050919050565b60006123946020836128db565b91507f436572746966696361746520686173682063616e6e6f7420626520656d7074796000830152602082019050919050565b6123d08161293f565b82525050565b60006123e28284612030565b915081905092915050565b60006020820190506124026000830184611fca565b92915050565b600060208201905061241d6000830184611fd9565b92915050565b60006080820190506124386000830187611fd9565b818103602083015261244a8186611ff7565b9050818103604083015261245e8185611ff7565b905061246d60608301846123c7565b95945050505050565b600060808201905061248b6000830187611fd9565b818103602083015261249d8186611ff7565b90506124ac60408301856123c7565b6124b96060830184611fd9565b95945050505050565b600060c08201905081810360008301526124dc8189611ff7565b90506124eb6020830188611fe8565b6124f860408301876123c7565b6125056060830186611fd9565b61251260808301856123c7565b61251f60a08301846123c7565b979650505050505050565b600060a08201905081810360008301526125448188611ff7565b905081810360208301526125588187611ff7565b9050818103604083015261256c8186611ff7565b905061257b60608301856123c7565b6125886080830184611fd9565b9695505050505050565b600060608201905081810360008301526125ac8186611ff7565b905081810360208301526125c08185611ff7565b90506125cf60408301846123c7565b949350505050565b600060808201905081810360008301526125f18187611ff7565b905081810360208301526126058186611ff7565b905061261460408301856123c7565b6126216060830184611fd9565b95945050505050565b600060408201905081810360008301526126448185611ff7565b905061265360208301846123c7565b9392505050565b600060a08201905081810360008301526126748188611ff7565b905061268360208301876123c7565b6126906040830186611fd9565b61269d60608301856123c7565b6126aa60808301846123c7565b9695505050505050565b600060208201905081810360008301526126cd81612061565b9050919050565b600060208201905081810360008301526126ed816120a1565b9050919050565b6000602082019050818103600083015261270d81612107565b9050919050565b6000602082019050818103600083015261272d81612147565b9050919050565b6000602082019050818103600083015261274d81612187565b9050919050565b6000602082019050818103600083015261276d816121c7565b9050919050565b6000602082019050818103600083015261278d81612207565b9050919050565b600060208201905081810360008301526127ad81612247565b9050919050565b600060208201905081810360008301526127cd81612287565b9050919050565b600060208201905081810360008301526127ed816122c7565b9050919050565b6000602082019050818103600083015261280d81612307565b9050919050565b6000602082019050818103600083015261282d81612347565b9050919050565b6000602082019050818103600083015261284d81612387565b9050919050565b600060208201905061286960008301846123c7565b92915050565b6000604051905081810181811067ffffffffffffffff8211171561289657612895612a64565b5b8060405250919050565b600067ffffffffffffffff8211156128bb576128ba612a64565b5b601f19601f8301169050602081019050919050565b600081519050919050565b600082825260208201905092915050565b600081905092915050565b60006129028261291f565b9050919050565b60008115159050919050565b6000819050919050565b600073ffffffffffffffffffffffffffffffffffffffff82169050919050565b6000819050919050565b82818337600083830152505050565b60005b8381101561297657808201518184015260208101905061295b565b83811115612985576000848401525b50505050565b600060028204905060018216806129a357607f821691505b602082108114156129b7576129b6612a35565b5b50919050565b60006129c88261293f565b91507fffffffffffffffffffffffffffffffffffffffffffffffffffffffffffffffff8214156129fb576129fa612a06565b5b600182019050919050565b7f4e487b7100000000000000000000000000000000000000000000000000000000600052601160045260246000fd5b7f4e487b7100000000000000000000000000000000000000000000000000000000600052602260045260246000fd5b7f4e487b7100000000000000000000000000000000000000000000000000000000600052604160045260246000fd5b6000601f19601f8301169050919050565b612aad81612915565b8114612ab857600080fd5b5056fea2646970667358221220482b94397487636af8c9a173ab61e3b96e0f2ae7c1c5a8ceabc375d09a5fde8664736f6c63430008000033",
  "immutableReferences": {},
  "source": "// SPDX-License-Identifier: MIT\npragma solidity ^0.8.0;\n\ncontract InstituteRegistry {\n    struct Institute {\n        string instituteName;\n        bytes32 credentialHash;\n        uint256 registeredAt;\n        bool isActive;\n        uint256 certificatesIssued;\n        uint256 uniqueIdsGenerated;\n    }\n\n    struct UniqueIdRecord {\n        string uniqueId;\n        string instituteId;\n        uint256 generatedAt;\n        bool isActive;\n    }\n\n    struct CertificateHash {\n        string certificateHash;\n        string instituteName;\n        string instituteId;\n        uint256 timestamp;\n        bool isValid;\n    }\n\n    mapping(string => Institute) public institutes;\n    mapping(string => UniqueIdRecord) public uniqueIds;\n    mapping(string => CertificateHash) public certificateHashes;\n    \n    address public owner;\n    uint256 public totalInstitutes;\n    uint256 public totalUniqueIds;\n    uint256 public totalCertificates;\n\n    event InstituteRegistered(string indexed instituteId, string instituteName, uint256 timestamp);\n    event UniqueIdGenerated(string indexed uniqueId, string instituteId, uint256 timestamp);\n    event CertificateIssued(string indexed certificateHash, string instituteId, string instituteName, uint256 timestamp);\n    event CertificateRevoked(string indexed certificateHash);\n    event InstituteDeactivated(string indexed instituteId);\n\n    constructor() {\n        owner = msg.sender;\n    }\n\n    modifier onlyOwner() {\n        require(msg.sender == owner, \"Only the owner can perform this action\");\n        _;\n    }\n\n    function registerInstitute(\n        string memory _instituteId,\n        string memory _instituteName,\n        bytes32 _credentialHash\n    ) public onlyOwner {\n        require(bytes(_instituteId).length > 0, \"Institute ID cannot be empty\");\n        require(bytes(_instituteName).length > 0, \"Institute name cannot be empty\");\n        require(_credentialHash != bytes32(0), \"Credential hash cannot be empty\");\n        require(institutes[_instituteId].registeredAt == 0, \"Institute already registered\");\n\n        institutes[_instituteId] = Institute({\n            instituteName: _instituteName,\n            credentialHash: _credentialHash,\n            registeredAt: block.timestamp,\n            isActive: true,\n            certificatesIssued: 0,\n            uniqueIdsGenerated: 0\n        });\n\n        totalInstitutes++;\n        emit InstituteRegistered(_instituteId, _instituteName, block.timestamp);\n    }\n\n    function verifyInstituteCredentials(\n        string memory _instituteId,\n        bytes32 _credentialHash\n    ) public view returns (bool) {\n        Institute memory institute = institutes[_instituteId];\n        \n        if (institute.registeredAt == 0) {\n            return false;\n        }\n        \n        if (!institute.isActive) {\n            return false;\n        }\n        \n        return institute.credentialHash == _credentialHash;\n    }\n\n    function generateUniqueId(\n        string memory _uniqueId,\n        string memory _instituteId\n    ) public onlyOwner {\n        require(bytes(_uniqueId).length > 0, \"Unique ID cannot be empty\");\n        require(bytes(_instituteId).length > 0, \"Institute ID cannot be empty\");\n        require(institutes[_instituteId].registeredAt > 0, \"Institute not registered\");\n        require(institutes[_instituteId].isActive, \"Institute is not active\");\n        require(uniqueIds[_uniqueId].generatedAt == 0, \"Unique ID already exists\");\n\n        uniqueIds[_uniqueId] = UniqueIdRecord({\n            uniqueId: _uniqueId,\n            instituteId: _instituteId,\n            generatedAt: block.timestamp,\n            isActive: true\n        });\n\n        institutes[_instituteId].uniqueIdsGenerated++;\n        totalUniqueIds++;\n        \n        emit UniqueIdGenerated(_uniqueId, _instituteId, block.timestamp);\n    }\n\n    function issueCertificate(\n        string memory _certificateHash,\n        string memory _instituteId,\n        string memory _instituteName\n    ) public onlyOwner {\n        require(bytes(_certificateHash).length > 0, \"Certificate hash cannot be empty\");\n        require(bytes(_instituteId).length > 0, \"Institute ID cannot be empty\");\n        require(institutes[_instituteId].registeredAt > 0, \"Institute not registered\");\n        require(institutes[_instituteId].isActive, \"Institute is not active\");\n        require(bytes(certificateHashes[_certificateHash].certificateHash).length == 0, \"Certificate hash already exists\");\n\n        certificateHashes[_certificateHash] = CertificateHash({\n            certificateHash: _certificateHash,\n            instituteName: _instituteName,\n            instituteId: _instituteId,\n            timestamp: block.timestamp,\n            isValid: true\n        });\n\n        institutes[_instituteId].certificatesIssued++;\n        totalCertificates++;\n        \n        emit CertificateIssued(_certificateHash, _instituteId, _instituteName, block.timestamp);\n    }\n\n    function verifyCertificate(string memory _certificateHash)\n        public\n        view\n        returns (\n            bool isValid,\n            string memory instituteName,\n            string memory instituteId,\n            uint256 timestamp\n        )\n    {\n        CertificateHash memory certHash = certificateHashes[_certificateHash];\n        \n        require(bytes(certHash.certificateHash).length > 0, \"Certificate not found\");\n        \n        return (\n            certHash.isValid,\n            certHash.instituteName,\n            certHash.instituteId,\n            certHash.timestamp\n        );\n    }\n\n    function revokeCertificate(string memory _certificateHash) public onlyOwner {\n        require(bytes(certificateHashes[_certificateHash].certificateHash).length > 0, \"Certificate not found\");\n        \n        certificateHashes[_certificateHash].isValid = false;\n        emit CertificateRevoked(_certificateHash);\n    }\n\n    function getInstituteInfo(string memory _instituteId)\n        public\n        view\n        returns (\n            string memory instituteName,\n            uint256 registeredAt,\n            bool isActive,\n            uint256 certificatesIssued,\n            uint256 uniqueIdsGenerated\n        )\n    {\n        Institute memory institute = institutes[_instituteId];\n        require(institute.registeredAt > 0, \"Institute not found\");\n        \n        return (\n            institute.instituteName,\n            institute.registeredAt,\n            institute.isActive,\n            institute.certificatesIssued,\n            institute.uniqueIdsGenerated\n        );\n    }\n\n    function verifyUniqueId(string memory _uniqueId)\n        public\n        view\n        returns (\n            bool exists,\n            string memory instituteId,\n            uint256 generatedAt,\n            bool isActive\n        )\n    {\n        UniqueIdRecord memory record = uniqueIds[_uniqueId];\n        \n        if (record.generatedAt == 0) {\n            return (false, \"\", 0, false);\n        }\n        \n        return (true, record.instituteId, record.generatedAt, record.isActive);\n    }\n\n    function deactivateInstitute(string memory _instituteId) public onlyOwner {\n        require(institutes[_instituteId].registeredAt > 0, \"Institute not found\");\n        institutes[_instituteId].isActive = false;\n        emit InstituteDeactivated(_instituteId);\n    }\n\n    function certificateExists(string memory _certificateHash) public view returns (bool) {\n        return bytes(certificateHashes[_certificateHash].certificateHash).length > 0;\n    }\n}\n",
  "sourcePath": "/home/runner/workspace/contracts/InstituteRegistry.sol",
  "compiler": {
    "name": "solc",
    "version": "0.8.0+commit.c7dfd78e.Emscripten.clang"
  },
  "schemaVersion": "3.4.16",
  "updatedAt": "2025-10-29T18:57:23.031Z",
  "networkType": "ethereum",
  "devdoc": {
    "kind": "dev",
    "methods": {},
    "version": 1
  },
  "userdoc": {
    "kind": "user",
    "methods": {},
    "version": 1
  }
}