{
  "contractName": "SimpleCertificateRegistry",
  "abi": [
    {
      "inputs": [],
      "stateMutability": "nonpayable",
      "type": "constructor"
    },
    {
      "anonymous": false,
      "inputs": [
        {
          "indexed": true,
          "internalType": "string",
          "name": "hash",
          "type": "string"
        },
        {
          "indexed": false,
          "internalType": "string",
          "name": "institution",
          "type": "string"
        },
        {
          "indexed": false,
          "internalType": "uint256",
          "name": "timestamp",
          "type": "uint256"
        }
      ],
      "name": "HashStored",
      "type": "event"
    },
    {
      "anonymous": false,
      "inputs": [
        {
          "indexed": true,
          "internalType": "string",
          "name": "hash",
          "type": "string"
        },
        {
          "indexed": false,
          "internalType": "bool",
          "name": "exists",
          "type": "bool"
        }
      ],
      "name": "HashVerified",
      "type": "event"
    },
    {
      "inputs": [],
      "name": "owner",
      "outputs": [
        {
          "internalType": "address",
          "name": "",
          "type": "address"
        }
      ],
      "stateMutability": "view",
      "type": "function",
      "constant": true
    },
    {
      "inputs": [
        {
          "internalType": "string",
          "name": "_hash",
          "type": "string"
        },
        {
          "internalType": "string",
          "name": "_institution",
          "type": "string"
        }
      ],
      "name": "storeHash",
      "outputs": [],
      "stateMutability": "nonpayable",
      "type": "function"
    },
    {
      "inputs": [
        {
          "internalType": "string",
          "name": "_hash",
          "type": "string"
        }
      ],
      "name": "verifyHash",
      "outputs": [
        {
          "internalType": "bool",
          "name": "exists",
          "type": "bool"
        },
        {
          "internalType": "string",
          "name": "institution",
          "type": "string"
        },
        {
          "internalType": "uint256",
          "name": "timestamp",
          "type": "uint256"
        }
      ],
      "stateMutability": "view",
      "type": "function",
      "constant": true
    },
    {
      "inputs": [
        {
          "internalType": "string",
          "name": "_hash",
          "type": "string"
        }
      ],
      "name": "hashExists",
      "outputs": [
        {
          "internalType": "bool",
          "name": "",
          "type": "bool"
        }
      ],
      "stateMutability": "view",
      "type": "function",
      "constant": true
    },
    {
      "inputs": [
        {
          "internalType": "string",
          "name": "_hash",
          "type": "string"
        }
      ],
      "name": "getHashDetails",
      "outputs": [
        {
          "internalType": "string",
          "name": "institution",
          "type": "string"
        },
        {
          "internalType": "uint256",
          "name": "timestamp",
          "type": "uint256"
        }
      ],
      "stateMutability": "view",
      "type": "function",
      "constant": true
    }
  ],
  "bytecode": "0x608060405234801561001057600080fd5b5033600360006101000a81548173ffffffffffffffffffffffffffffffffffffffff021916908373ffffffffffffffffffffffffffffffffffffffff160217905550610b42806100616000396000f3fe608060405234801561001057600080fd5b50600436106100575760003560e01c80636f28ee091461005c57806386fb2813146100785780638da5cb5b146100aa5780639871e510146100c8578063bcfacf2b146100f8575b600080fd5b6100766004803603810190610071919061067b565b610129565b005b610092600480360381019061008d919061063a565b610291565b6040516100a19392919061088b565b60405180910390f35b6100b2610395565b6040516100bf9190610855565b60405180910390f35b6100e260048036038101906100dd919061063a565b6103bb565b6040516100ef9190610870565b60405180910390f35b610112600480360381019061010d919061063a565b6103ef565b6040516101209291906108c9565b60405180910390f35b600082511161016d576040517f08c379a0000000000000000000000000000000000000000000000000000000008152600401610164906108f9565b60405180910390fd5b60008151116101b1576040517f08c379a00000000000000000000000000000000000000000000000000000000081526004016101a890610939565b60405180910390fd5b60016000836040516101c3919061083e565b908152602001604051809103902060006101000a81548160ff021916908315150217905550426001836040516101f9919061083e565b9081526020016040518091039020819055508060028360405161021c919061083e565b9081526020016040518091039020908051906020019061023d92919061052f565b508160405161024c919061083e565b60405180910390207fa0e74deee554563b6b60943f7c6686d895986ae9e54a55f2648e455dd04c402882426040516102859291906108c9565b60405180910390a25050565b60006060600080846040516102a6919061083e565b908152602001604051809103902060009054906101000a900460ff1692506002846040516102d4919061083e565b908152602001604051809103902080546102ed90610a6b565b80601f016020809104026020016040519081016040528092919081815260200182805461031990610a6b565b80156103665780601f1061033b57610100808354040283529160200191610366565b820191906000526020600020905b81548152906001019060200180831161034957829003601f168201915b5050505050915060018460405161037d919061083e565b90815260200160405180910390205490509193909250565b600360009054906101000a900473ffffffffffffffffffffffffffffffffffffffff1681565b600080826040516103cc919061083e565b908152602001604051809103902060009054906101000a900460ff169050919050565b606060008083604051610402919061083e565b908152602001604051809103902060009054906101000a900460ff1661045d576040517f08c379a000000000000000000000000000000000000000000000000000000000815260040161045490610919565b60405180910390fd5b60028360405161046d919061083e565b908152602001604051809103902060018460405161048b919061083e565b9081526020016040518091039020548180546104a690610a6b565b80601f01602080910402602001604051908101604052809291908181526020018280546104d290610a6b565b801561051f5780601f106104f45761010080835404028352916020019161051f565b820191906000526020600020905b81548152906001019060200180831161050257829003601f168201915b5050505050915091509150915091565b82805461053b90610a6b565b90600052602060002090601f01602090048101928261055d57600085556105a4565b82601f1061057657805160ff19168380011785556105a4565b828001600101855582156105a4579182015b828111156105a3578251825591602001919060010190610588565b5b5090506105b191906105b5565b5090565b5b808211156105ce5760008160009055506001016105b6565b5090565b60006105e56105e08461098a565b610959565b9050828152602081018484840111156105fd57600080fd5b610608848285610a29565b509392505050565b600082601f83011261062157600080fd5b81356106318482602086016105d2565b91505092915050565b60006020828403121561064c57600080fd5b600082013567ffffffffffffffff81111561066657600080fd5b61067284828501610610565b91505092915050565b6000806040838503121561068e57600080fd5b600083013567ffffffffffffffff8111156106a857600080fd5b6106b485828601610610565b925050602083013567ffffffffffffffff8111156106d157600080fd5b6106dd85828601610610565b9150509250929050565b6106f0816109e1565b82525050565b6106ff816109f3565b82525050565b6000610710826109ba565b61071a81856109c5565b935061072a818560208601610a38565b61073381610afb565b840191505092915050565b6000610749826109ba565b61075381856109d6565b9350610763818560208601610a38565b80840191505092915050565b600061077c6014836109c5565b91507f486173682063616e6e6f7420626520656d7074790000000000000000000000006000830152602082019050919050565b60006107bc6013836109c5565b91507f4861736820646f6573206e6f74206578697374000000000000000000000000006000830152602082019050919050565b60006107fc601b836109c5565b91507f496e737469747574696f6e2063616e6e6f7420626520656d70747900000000006000830152602082019050919050565b61083881610a1f565b82525050565b600061084a828461073e565b915081905092915050565b600060208201905061086a60008301846106e7565b92915050565b600060208201905061088560008301846106f6565b92915050565b60006060820190506108a060008301866106f6565b81810360208301526108b28185610705565b90506108c1604083018461082f565b949350505050565b600060408201905081810360008301526108e38185610705565b90506108f2602083018461082f565b9392505050565b600060208201905081810360008301526109128161076f565b9050919050565b60006020820190508181036000830152610932816107af565b9050919050565b60006020820190508181036000830152610952816107ef565b9050919050565b6000604051905081810181811067ffffffffffffffff821117156109805761097f610acc565b5b8060405250919050565b600067ffffffffffffffff8211156109a5576109a4610acc565b5b601f19601f8301169050602081019050919050565b600081519050919050565b600082825260208201905092915050565b600081905092915050565b60006109ec826109ff565b9050919050565b60008115159050919050565b600073ffffffffffffffffffffffffffffffffffffffff82169050919050565b6000819050919050565b82818337600083830152505050565b60005b83811015610a56578082015181840152602081019050610a3b565b83811115610a65576000848401525b50505050565b60006002820490506001821680610a8357607f821691505b60208210811415610a9757610a96610a9d565b5b50919050565b7f4e487b7100000000000000000000000000000000000000000000000000000000600052602260045260246000fd5b7f4e487b7100000000000000000000000000000000000000000000000000000000600052604160045260246000fd5b6000601f19601f830116905091905056fea2646970667358221220293860b0dc29c23004151014aabf5d9e9553835bc19873f3674ad74934aa146364736f6c63430008000033",
  "immutableReferences": {},
  "source": "// SPDX-License-Identifier: MIT\npragma solidity ^0.8.0;\n\ncontract SimpleCertificateRegistry {\n    // Mapping to store certificate hashes\n    mapping(string => bool) private certificateHashes;\n    mapping(string => uint256) private hashTimestamps;\n    mapping(string => string) private hashInstitutions;\n    \n    address public owner;\n    \n    event HashStored(string indexed hash, string institution, uint256 timestamp);\n    event HashVerified(string indexed hash, bool exists);\n    \n    constructor() {\n        owner = msg.sender;\n    }\n    \n    // Store a certificate hash on the blockchain\n    function storeHash(string memory _hash, string memory _institution) public {\n        require(bytes(_hash).length > 0, \"Hash cannot be empty\");\n        require(bytes(_institution).length > 0, \"Institution cannot be empty\");\n        \n        certificateHashes[_hash] = true;\n        hashTimestamps[_hash] = block.timestamp;\n        hashInstitutions[_hash] = _institution;\n        \n        emit HashStored(_hash, _institution, block.timestamp);\n    }\n    \n    // Verify if a certificate hash exists on the blockchain\n    function verifyHash(string memory _hash) public view returns (bool exists, string memory institution, uint256 timestamp) {\n        exists = certificateHashes[_hash];\n        institution = hashInstitutions[_hash];\n        timestamp = hashTimestamps[_hash];\n        return (exists, institution, timestamp);\n    }\n    \n    // Check if hash exists (simple boolean check)\n    function hashExists(string memory _hash) public view returns (bool) {\n        return certificateHashes[_hash];\n    }\n    \n    // Get hash details\n    function getHashDetails(string memory _hash) public view returns (string memory institution, uint256 timestamp) {\n        require(certificateHashes[_hash], \"Hash does not exist\");\n        return (hashInstitutions[_hash], hashTimestamps[_hash]);\n    }\n}",
  "sourcePath": "/home/runner/workspace/contracts/SimpleCertificateRegistry.sol",
  "compiler": {
    "name": "solc",
    "version": "0.8.0+commit.c7dfd78e.Emscripten.clang"
  },
  "schemaVersion": "3.4.16",
  "updatedAt": "2025-11-03T22:19:38.525Z",
  "networkType": "ethereum",
  "devdoc": {
    "kind": "dev",
    "methods": {},
    "version": 1
  },
  "userdoc": {
    "kind": "user",
    "methods": {},
    "version": 1
  }
}